:03000000020D17D7
:0C0D1700787FE4F6D8FD75811602080014
:100998000D0A3D3D3D3D3D3D3D3D3D3D3D3D3D3DE2
:1009A8003D3D3D3D3D3D3D3D3D3D3D3D0D0A005BF1
:1009B80020534543555245205445524D494E414CCC
:1009C80020414354495645205D0D0A003D3D3D3DBB
:1009D8003D3D3D3D3D3D3D3D3D3D3D3D3D3D3D3D3F
:1009E8003D3D3D3D3D3D0D0A0053595354454D2075
:1009F8004C4F434B4544000D0A21212120534543C8
:100A0800555249545920414C455254202121210D19
:100A18000A00425255544520464F5243452044450A
:100A28005445435445440D0A004C4F434B4F5554CD
:100A380020494E2050524F47524553533A20002EDA
:100A4800000D0A5354415455533A20537973746531
:100A58006D2052657365742E0D0A0D0A00456E747B
:100A680065722050494E3A004C4F473A205B42612C
:100A7800636B73706163655D0D0A004552523A20DD
:100A880050494E20544F4F2053484F52540D0A009E
:100A98004B455920524547495354455245443A20FD
:100AA800000D0A00414343455353204752414E54D9
:100AB800454400524553554C543A205355434345F9
:100AC8005353202D2050494E204D415443480D0A80
:100AD800004143434553532044454E494544005241
:100AE8004553554C543A204641494C4544202D2005
:100AF80057524F4E472050494E0D0A004154544515
:100B08004D505453204C4546543A2000313233342A
:100B180035363738392A3023FEFDFBF710204033AD
:030B28003036352F
:060C8B00D2B27F017E00E1
:100C9100E4FDFCC3ED9FEC9E5015E4FBFA0BBB0099
:0F0CA100010AEB64784A70F50DBD00010C80E488
:010CB0002221
:0C0D2300758920758DFD759850D28E22C8
:080D2F008F993099FDC2992251
:100CB1008B148A158916AB14AA15A916120C21607A
:100CC100130516E5167002051514F9120C21FF1211
:050CD1000D2F80E2225E
:0E0CFB008FA0C2B0120C8BC2B27F03020C910C
:0E0D09008FA0D2B0120C8BC2B27F03020C91ED
:100CD6008B148A158916AB14AA15A916120C216055
:100CE600130516E5167002051514F9120C21FF12EC
:050CF6000D0980E2225F
:100C3A00E4F514E514900B2093F590E4F9E9900B90
:100C4A0024935590702C7F14FE120C91E9900B247A
:100C5A0093559060F7E51475F003A42414F582E423
:100C6A00340BF583E58229F582E43583F583E49331
:100C7A00FF2209B903C70514E514C3940440B480DC
:010C8A00AFBA
:1008000078087C007D007BFF7A0B79277E007F04CF
:10081000120BFBE4F511120D237F38120CFB7F0C39
:10082000120CFB7BFF7A097998120CB17BFF7A09D5
:1008300079B7120CB17BFF7A0979D4120CB1E511AA
:10084000C3940340587F01120CFB7BFF7A0979F1B6
:10085000120CD67BFF7A0979FF120CB17BFF7A0A62
:10086000791A120CB17BFF7A0A7931120CB1E4F5D6
:1008700012D2B57FF47E01120C91C2B5120C917B9D
:10088000FF7A0A7947120CB10512E512C3940A40A7
:10089000E0E4F5117BFF7A0A7949120CB1C2B5C2C6
:1008A000B47F01120CFB7BFF7A0A7965120CD67FAC
:1008B000C0120CFBE4F513120C3A8F10E510642AF9
:1008C0007028D3E5136480948040EC1513E513245D
:1008D000C0FF120CFB7F20120D09E51324C0FF128C
:1008E0000CFB7BFF7A0A7970803EE510B4230EE59D
:1008F00013640460387BFF7A0A7983802BC3E51385
:100900006480948450B1740C2513F8A6107F2A12C9
:100910000D0905137BFF7A0A7998120CB1AF1012FA
:100920000D2F7BFF7A0A79A9120CB1808A7F011200
:100930000CFBE50C65087025E50DB50920E50EB545
:100940000A1BE50FB50B167BFF7A0A79AC120CD6A1
:10095000D2B4E4F5117BFF7A0A79BB802E7BFF7A53
:100960000A79D9120CD6D2B505117BFF7A0A79E73C
:10097000120CB17BFF7A0B7904120CB1C37433955E
:1009800011FF120D2F7BFF7A0A79A9120CB17FC4D7
:080990007E09120C9102083EE1
:100B2B00E709F608DFFA8046E709F208DFFA803EAC
:100B3B0088828C83E709F0A3DFFA8032E309F60899
:100B4B00DFFA8078E309F208DFFA807088828C8301
:100B5B00E309F0A3DFFA806489828A83E0A3F608B5
:100B6B00DFFA805889828A83E0A3F208DFFA804C8F
:100B7B0080D280FA80C680D4806980F28033801066
:100B8B0080A680EA809A80A880DA80E280CA8033CF
:100B9B0089828A83ECFAE493A3C8C582C8CCC58347
:100BAB00CCF0A3C8C582C8CCC583CCDFE9DEE78017
:100BBB000D89828A83E493A3F608DFF9ECFAA9F096
:100BCB00EDFB2289828A83ECFAE0A3C8C582C8CCEC
:100BDB00C583CCF0A3C8C582C8CCC583CCDFEADE05
:100BEB00E880DB89828A83E493A3F208DFF980CC67
:100BFB0088F0EF60010E4E60C388F0ED2402B40460
:100C0B000050B9F582EB2402B4040050AF23234506
:060C1B008223900B7B73A5
:100C2100BB010689828A83E0225002E722BBFE02D1
:090C3100E32289828A83E4932204
:00000001FF
